:020000040800F2
:10000000C80400209D0100086F1700086D13000848
:100010006D1700086F070008751800080000000041
:10002000000000000000000000000000931700081E
:1000300071070008000000009117000895170008DC
:10004000B7010008B7010008B7010008B7010008B0
:10005000B7010008B7010008B7010008B7010008A0
:10006000B7010008B7010008B7010008B701000890
:10007000B7010008B7010008B7010008B701000880
:10008000B7010008B7010008B7010008B701000870
:10009000B7010008B7010008B7010008B701000860
:1000A000B7010008B7010008B7010008B701000850
:1000B000B7010008B7010008B7010008B701000840
:1000C000B7010008B7010008B7010008B701000830
:1000D000B7010008B7010008B7010008B701000820
:1000E000B7010008B7010008B7010008B701000810
:1000F000B7010008B7010008B7010008B701000800
:10010000B7010008B7010008B7010008B7010008EF
:10011000B7010008B7010008B7010008B7010008DF
:10012000B7010008B7010008B7010008B7010008CF
:10013000B7010008B7010008B7010008B7010008BF
:10014000B7010008B7010008B7010008B7010008AF
:10015000B7010008B7010008B7010008B70100089F
:10016000B7010008B7010008B7010008B70100088F
:10017000B7010008B7010008B7010008000000003F
:10018000B7010008B7010008DFF80CD000F06EFAE4
:1001900000480047D5210008C804002006488047D1
:1001A00006480047FEE7FEE7FEE7FEE7FEE7FEE75C
:1001B000FEE7FEE7FEE7FEE72118000889010008D8
:1001C0002DE9F05F0546002092469B46884606468C
:1001D000814640241BE0284641464746224600F01F
:1001E0007CF853465A46C01A914110D3114618461E
:1001F000224600F063F82D1A67EB01084F462246AD
:100200000120002100F05AF817EB00094E41201E92
:10021000A4F10104DFDC484631462A464346BDE8E6
:10022000F09F40EA01039B0703D009E008C9121FB1
:1002300008C0042AFAD203E011F8013B00F8013BA0
:10024000521EF9D27047D2B201E000F8012B491ECC
:10025000FBD270470022F6E710B513460A46044663
:100260001946FFF7F0FF204610BD00F0004230F0C5
:1002700000400AD0C10D01F56071C0F3160042EADA
:100280000151C208400711437047002001467047E2
:1002900030B50B46014600202022012409E021FA56
:1002A00002F59D4205D303FA02F5491B04FA02F553
:1002B0002844151EA2F10102F1DC30BD202A04DB26
:1002C000203A00FA02F1002070479140C2F1200369
:1002D00020FA03F3194390407047202A04DB203AA8
:1002E00021FA02F00021704721FA02F3D040C2F156
:1002F000200291400843194670472DE9FE4F804681
:1003000081EA0300C00F0C46009021F0004123F069
:100310000045B8EB0200A94105D24046214690466F
:100320001C460B46024623F00040104347D0270DE1
:10033000C7F30A00C3F30A510290401A0190402803
:100340006BDAC3F3130040F4801B0098924620B18F
:100350000023D2EB030A63EB0B0B01985946C0F163
:1003600040025046FFF7AAFF06460D465046594642
:10037000019A00F08DF910EB08006141002487EA32
:10038000115284EAE7731A4340D0009A62B3019A8B
:10039000012A4FEA075215DC001B61EB02014FF006
:1003A000004202EA0752CDE90042001C41F58011EB
:1003B00032462B4600F08DF903B0BDE8F08F404681
:1003C0002146F9E7001B61EB0201001C41F5801397
:1003D00000185B412018A2F5001747EB030140EA23
:1003E000D570B6196D4111E06D084FEA360645EA41
:1003F000C0754FEA0752001B61EB0201001C41F57A
:10040000801149084FEA30000019514132462B460D
:1004100003B0BDE8F04F00F04DB900980122400054
:100420000023D0EB020263EBE073009821464FEA11
:10043000E074B8EB000061EB0401E9E783F00043EE
:100440005BE781F0004158E72DE9FE4F81EA0304A4
:1004500004F0004421F0004100944FF0000B23F021
:10046000004350EA01045ED052EA03045BD0C3F3B8
:100470000A54C1F30A552C44A4F2F3340194A0FBAE
:100480000254C1F3130141F48011C3F3130343F485
:10049000801301FB024400FB034E840A970A44EADE
:1004A000815447EA8357A4FB076802958D0A05FB30
:1004B00007854FEA932C04FB0C542705029D4FEA55
:1004C000065847EA1637B5EB08056EEB070C870EA2
:1004D000920E47EA811742EA8312A7FB0201B6EBAC
:1004E0000B0164EB00042B0D43EA0C335E1844EB64
:1004F0001C50DA465146E7FB0201C5F313044FEAEC
:100500000B3343EA14534FEA0432019C43EA0603D7
:10051000A4F10C040294009CCDE900B400F0D9F8D9
:1005200003B0BDE8F08F00200146F9E72DE9F04D5A
:1005300081EA030404F0004B21F0004514464FF01B
:10054000000A23F0004150EA050220D054EA0102DB
:100550001DD0C5F30A570246C5F31303C1F31300B8
:10056000C1F30A5640F4801543F48013A7EB060844
:10057000101BD64608F2FD3873EB050002D308F1D4
:10058000010801E092185B41B8F1000F03DA002086
:100590000146BDE8F08D00204FF4801106468446E8
:1005A0000EE0171B73EB050705D3121B63EB050366
:1005B00006434CEA010C49084FEA300092185B41AF
:1005C00050EA0107EDD152EA030012D082EA04009A
:1005D00083EA0501084305D0101BAB4106D2012276
:1005E000002306E000224FF0004302E06FF001021A
:1005F00053101AEB06004CEB085110EB0A0041EBCC
:100600000B01BDE8F04D00F055B8C1F30A52C1F33B
:10061000130140F2FF3341F480119A4202DA0020C4
:100620000146704740F233439A42A2F2334202DC61
:100630005242FFF752BEFFF741BE000030B5041E24
:1006400071F1000404DB4FF00044404264EB01010F
:10065000141E73F1000405DB1C464FF000435242A8
:1006600063EB0403994208BF904230BD064C074D2E
:1006700006E0E06840F0010394E807009847103472
:10068000AC42F6D3FFF784FD54230008742300081E
:10069000202A06DBCB17203A41FA02F043EAE07346
:1006A00006E041FA02F3D040C2F120029140084333
:1006B0001946704710B5141E73F1000408DA401C87
:1006C00041F1000192185B411A4301D120F0010071
:1006D00010BD2DE9F04D92469B4611B1B1FA81F261
:1006E00002E0B0FA80F220329046FFF7E7FD0446C0
:1006F0000F4640EA0A0041EA0B0153465A460843B6
:1007000013D0114653EA010019D0C8F140025046F7
:10071000FFF7E3FD05460E46504659464246FFF7B1
:10072000CDFD084305D0012004E020463946BDE850
:10073000F08D0020054346EAE0762C4337430A98C3
:100740006305E40AA0EB08000022FD0A44EA4754CE
:100750000A3002D500200146E9E701051019694178
:10076000DDE9084500196941BDE8F04DA2E7FEE763
:100770007047000070B5044600F0E6F80546601CBE
:1007800002D004480078044400F0DEF8401BA04288
:10079000FAD370BD000000202DE9F84FDFF87CB1DE
:1007A00000224FF001084FF0030A4FF00F090BF140
:1007B000040E00BF0B6808FA02F42340A3426ED176
:1007C0004D68022D01D0122D0ED1D50800EB850CFD
:1007D000DCF820505607F70E09FA07F6B5430E6904
:1007E000BE402E43CCF82060066855000F790AFA07
:1007F00005FC07F0030726EA0C06AF403743076005
:100800004E68012E05D0022E03D0112E01D0122EDB
:100810000ED18668CF6826EA0C06AF403743876062
:100820004668A6430C79C4F30014944034434460F2
:10083000C6688C6826EA0C06AC403443C4604C6839
:10084000E40065D5364C256845F48045256024686C
:1008500022F0030504F480440094324C2E19D6F89B
:10086000084895072F0F09FA07F5AC432E4DA8420B
:1008700001D1002524E02D4DA84201D101251FE022
:100880002B4DA84201D102251AE02A4DA84201D1E0
:10089000032515E0284DA84202D1042510E037E0D9
:1008A000264DA84201D105250AE0254DA84201D1D7
:1008B000062505E0234DA84201D1072500E00825C3
:1008C000BD402543C6F80858DBF800405D464E6839
:1008D0009C43F60300D51C432C60DEF800407546AF
:1008E0004E689C43B60300D51C432C600B4D083565
:1008F0002C684E689C43F60200D51C432C60074DC3
:100900000C352C684E689C43B60200D51C432C6005
:10091000521C102AFFF44EAFBDE8F88F003C014096
:100920004438024000300140000002400004024010
:1009300000080240000C0240001002400014024077
:1009400000180240001C0240014880687047000007
:100950000000002070B5040004D094F83D0000258C
:1009600010B106E0012070BD84F83C50204600F034
:10097000C1F9242084F83D002068016821F00101BC
:10098000016000F00FFB33492268B0FBF1F15160C8
:10099000314A6368934206D94FF4967359434FF432
:1009A0007A73B1FBF3F12368491C196261689142C3
:1009B0000BD84900B0FBF1F2C2F30B02042A01D2BA
:1009C000042019E0B0FBF1F016E0A3689BB301EB43
:1009D000C10202EB0112B0FBF2F242F480421205B6
:1009E00030D04BB301EBC10202EB0111B0FBF1F0CF
:1009F00040F4804040F400402168C861D4E9070118
:100A0000084321680860D4E903100843216888601E
:100A1000D4E9050108432168C8602068016841F0F5
:100A2000010101602564202084F83D00256384F8DD
:100A30003E50002070BD00E006E001EB4102B0FB3B
:100A4000F2F2CCE70120D7E701EB4101B0FBF1F076
:100A5000D0E7000040420F00A08601002DE9FF4FC3
:100A600081B099468B4604464FF00108FFF76CFFB2
:100A7000054694F83D0020287BD1192301224D49D9
:100A80002046009500F0F9FC002872D194F83C0053
:100A900001286ED0012084F83C0020680168C90755
:100AA00003D1016841F0010101602068016821F46F
:100AB00000610160242084F83D00002626643E4841
:100AC000E06220272068016841F4807101604B4694
:100AD00000224FF001112046009500F0CEFC0028C6
:100AE00058D121680BF0FE000861FFF72DFF216847
:100AF000054648694969C0F3400094F83D20C1F3B8
:100B000080214FF0A00A12E0B9F1000F04D0FFF7E6
:100B10001BFF411B494501D984F83DA02168486964
:100B20004969C0F3400094F83D20C1F38021084397
:100B300001D1A02AE8D184F83D7020684169C943F9
:100B4000890717D4016841F4007101602068416988
:100B500080691923012217492046009500F08DFC79
:100B6000C0B984F83D7084F83C60002005B0BDE851
:100B7000F08F1DE0016841F40071016021686FF49D
:100B800080604861192301220A492046009500F03F
:100B900074FC08B10320E9E74146039808F1010815
:100BA00081428FD384F83D7084F83C600120DDE7FA
:100BB0000220DBE7020010000000FFFF2DE9F84FE4
:100BC0001F4690468A460446DDF82890FFF7BCFE93
:100BD000064694F83D0020287ED11923012243497E
:100BE0002046009600F049FC00287DD194F83C0096
:100BF000012879D0012084F83C0020680168C907E9
:100C000003D1016841F0010101602068016821F40D
:100C100000610160212084F83D00102084F83E002E
:100C200000252564C4F8248067853148E062608D22
:100C3000208533464A465146204600F0ADFB28B198
:100C4000206C84F83C5004284CD00DE020684169A9
:100C50008069009030E032464946204600F082FC30
:100C600028B1206C042838D00320BDE8F88F606AD2
:100C7000411C6162216800780861608D401E6085BA
:100C8000208D401E80B2208521684A69D2435207D8
:100C90000BD450B1606A421C626200780861608DBA
:100CA000401E6085208D401E2085324649462046E4
:100CB00000F0BCFB0028D4D1208D0028CBD154F803
:100CC0003D0B016841F400710160202004F81E0909
:100CD000E57765770020C8E706E02068016841F401
:100CE000007101600120C0E70220BEE70200100091
:100CF0000000FFFF10B586B0044614216846FFF7D8
:100D0000A9FA13492068884220D11248016841F0AD
:100D1000020101600068694600F002000590C020F1
:100D200000901220019001200290032003900420E3
:100D300004900948FFF730FD06481030016841F47F
:100D400000110160006800F40010059006B010BDAD
:100D500000540040303802400004024002488168DC
:100D60000278114481607047000000200B4810B5E4
:100D7000016841F400710160016841F48061016023
:100D8000016841F480710160032000F061F80020E7
:100D900000F006F800F024F8002010BD003C0240EE
:100DA00070B50D4D04464FF47A712878B1FBF0F020
:100DB0000A490968B1FBF0F000F0C4FA48B9102CF8
:100DC00007D200222146501E00F022F800206C605D
:100DD00070BD012070BD0000000000201800002040
:100DE0000A4808B5016841F480410160006800F4D8
:100DF000804000900548001F016841F0805101606B
:100E0000006800F08050009008BD000044380240A7
:100E1000F0B40E4B1B680C46C3F30223C3F1070565
:100E2000042D00D90425191D072901D2002300E053
:100E3000DB1E012606FA05F1491E214099409E401D
:100E4000761E16403143F0BC00F092BC0CED00E081
:100E5000064900F0070208684FF6FF03184040EA11
:100E60000220034A10430860704700000CED00E0C8
:100E70000000FA052DE9F0470E46050065D0DFF8C1
:100E80001481D8F80000F7B200F00F00B04207D28A
:100E900088F80070D8F8000000F00F00B04254D17C
:100EA00028683D4C810712D5400703D5206840F4DF
:100EB000E05020602878000703D5206840F46040A7
:100EC00020602068A96820F0F0000843206028789E
:100ED000C0072DD0304968680839012812D002288F
:100EE00013D0032811D00968890700292DDA216859
:100EF00021F0030101432160FFF726FD814641F205
:100F0000883A0EE009688903EFE709688901ECE790
:100F1000FFF71AFDA0EB0901514502D90320BDE8F6
:100F2000F0872068696800F00C00B0EB810FEFD10A
:100F3000D8F80010404601F00F01B14207D9077000
:100F4000006800F00F00B04201D00120E7E72878E8
:100F5000400705D52068E96820F4E0500843206088
:100F60002878000706D52068296920F4604040EA07
:100F7000C100206000F026F82168084AC1F303117F
:100F8000515CC840064908600020FFF709FF0020B7
:100F9000C5E70000003C0240083802403C2300083E
:100FA000180000200448054900680968044AC1F394
:100FB0008221515CC8407047180000200838024068
:100FC0004C230008154810B5006810F00C021448B6
:100FD00013D01449042A0FD0082A0ED10F4C241F15
:100FE0002268236802F03F025B0207D52068C0F345
:100FF0008810A0FB010106E0084610BD2168C1F37E
:101000008811A1FB00010023FFF7DAF82168C1F382
:101010000141491C4900B0FBF1F010BD0838024005
:101020000024F40040787D012DE9F84F050076D0CA
:101030002878DFF8F8B2BE4CC00749D0DBF80010C2
:101040005846C1F38101012908D00068C0F381002E
:1010500002280AD1201D0068400206D520688003BE
:1010600036D568680028E2D032E06868B0F5803F85
:1010700010D0B0F5A02F206810D020F48030206070
:10108000206820F4802020606868A0B1FFF75CFC35
:1010900006460CE0206840F48030F4E740F48020FD
:1010A0002060F7E7FFF750FC801B642873D82068A6
:1010B0008003F7D50CE0FFF747FC064605E000BFCC
:1010C000FFF742FC801B6428F0D820688003F7D427
:1010D0002878DFF8608280074FF000093ED5DBF802
:1010E0000010584611F00C0F09D00068C0F38100C1
:1010F00002280BD18D48001F0068400206D42068EA
:10110000800715D5E868012809D111E0E868B8B171
:101110000120C8F80000FFF717FC064605E002E1D1
:10112000FFF712FC801B0228C0D820688007F7D583
:101130002068296920F0F80040EAC10020600DE035
:10114000C8F80090FFF700FC064604E0FFF7FCFB40
:10115000801B02281FD820688007F7D42878000752
:1011600022D5724E744869696C3671B101210160F3
:10117000FFF7EAFB074604E0FFF7E6FBC01B022887
:1011800009D830688007F7D50EE0C0F80090FFF767
:10119000DBFB074605E083E0FFF7D6FBC01B022818
:1011A0007ED830688007F7D42878400768D5DFF804
:1011B0007CA100270AF1380ADAF80000C0000BD43D
:1011C000DAF8001041F08051CAF80010DAF8000097
:1011D000012700F080500090584E3068C00510D4B0
:1011E000306840F480703060FFF7AEFB009005E09F
:1011F000FFF7AAFB0099401A022851D83068C005B1
:10120000F6D54A4EA868683601280FD00528306800
:1012100010D020F001003060306820F00400306011
:10122000A868B8B1FFF790FB00900FE0306840F07D
:101230000100F4E740F004003060F7E7FFF784FBBB
:101240000099411A41F28830814264D830688007A1
:10125000F4D50EE0FFF778FB009007E0FFF774FB92
:101260000099411A41F28830814254D83068800791
:10127000F4D42FB1DAF8001021F08051CAF8001030
:10128000A869C0B3DBF80010C1F3810102294AD07C
:101290000228484607D0C8F86000FFF755FB00E079
:1012A00039E005463AE04746C8F86000FFF74CFBD6
:1012B000064604E0FFF748FB801B02282BD8206875
:1012C0008001F7D4D5E907010843A96A1C4A4908F7
:1012D00002EB01416A6A41EA8211084395F82C1039
:1012E00040EA01611148001F016001203866FFF7E4
:1012F0002BFB054605E014E0FFF726FB401B022808
:1013000009D820688001F7D50BE000BFFFF71CFB70
:10131000401B022802D90320BDE8F88F2068800115
:10132000F4D40020F8E70120F6E700000838024076
:101330000038024000004742800E474200700040E3
:101340000000FFFF10B5401EB0F1807F01D30120E7
:1013500010BD4FF0E02460610F21601700F008FA23
:101360000020A06107202061002010BDFEE7016879
:101370004A69D24352050CD46FF480624A61042159
:101380000164002140F8301F2022427301730120C4
:101390007047002070470000F8B50446C06A1E463A
:1013A0000D461746042807D0012805D010F5803FC8
:1013B00002D0206B122804D12068016841F48071AA
:1013C0000160134600224FF001112046009600F004
:1013D00054F8A0B92069B0F5804F12D006202168DA
:1013E00000EAD51040F0F000086133463A460E4955
:1013F000204600F073F838B1206C042811D0032087
:10140000F8BD05F0FE0000E0E8B221680861064979
:1014100033463A46891F204600F060F80028EBD199
:10142000F8BD0120F8BD00000800010070B51646A7
:101430000D4604461AE02046FFF799FF08B1012047
:1014400070BD681C12D025B1FFF77EFA801BA84240
:101450000CD954F8400F40F0200044F81009002047
:101460002060202161732073032070BD20684069D3
:10147000C0434007DFD4002070BD2DE9F0471E4671
:1014800090460D460446C1F30747DDF8209012E070
:10149000701C10D02EB1FFF757FAA0EB0900B04234
:1014A00009D9002044F8300F20216173A073207304
:1014B0000320BDE8F0872068012F0AD0806925EA63
:1014C00000000004000C06D000214145E0D00020BF
:1014D000EFE74069F3E70121F7E700002DE9F04766
:1014E0009A4691460D46044600264FF02008C1F367
:1014F00007472AE020684069C043400512D42068AD
:10150000016841F40071016021686FF480604861F6
:1015100004202064266384F83D8084F83C60012028
:10152000BDE8F087B9F1FF3F0FD0B9F1000F05D04A
:10153000FFF70AFAA0EB0A01494506D944F8306FD3
:1015400084F80D8026730320EAE72068012F07D076
:10155000D0F8180025EA00000004000CE0D0C9E72C
:101560004069F7E770B516460D4604461AE0204676
:10157000FFF7FDFE08B1012070BD681C12D025B137
:10158000FFF7E2F9801BA8420CD954F8400F40F055
:10159000200044F81009002020602021617320738E
:1015A000032070BD20684069C0430006DFD40020DE
:1015B00070BD00000449082801D0002803D18871BB
:1015C000202000F095B870470C00002010B50120D5
:1015D00000F06AF84FF47A70FFF7CCF8022000F0C0
:1015E00063F80520FFF7C6F8282000F05DF8052015
:1015F000FFF7C0F80C2000F057F80520FFF7BAF805
:10160000802000F051F8BDE810404FF4FA70FFF769
:10161000B1B810B504469AB010EE100AFEF725FED8
:1016200041EC100B214653EC102B684600F024F9D6
:10163000684600F003F81AB010BD000070B50C4CFD
:1016400005460026E67008E06D1C00F051F8E078D1
:10165000401CC0B2E070142803D028780028F3D1D1
:1016600070BDA0780121401C00F004F8EAE70000FA
:101670000C0000200A4A9070421E032A0ED84A1E0F
:10168000132A0BD8074A00EB800002EB80000844C5
:1016900010F8150C40F0800000F006B8704700000C
:1016A0000C000020EC22000838B50F4C627800EAEC
:1016B000020102EA0010A279114310432171E21DD8
:1016C000607141F004031370517040F00401917097
:1016D000D07000F053FDC82000900423E21D217853
:1016E0000248FFF76BFA38BD0C00002070000020A4
:1016F00038B5114C627800EA020102EA0010A279C2
:1017000011432171104341F00503E21D6071137014
:1017100041F00101517040F00501917040F001006D
:10172000D07000F02BFDC82000900423E21D21782A
:101730000248FFF743FA38BD0C000020700000207B
:1017400070B53220FFF716F800F018FD054D4FF484
:101750007A742346032229780348FFF77FF900288B
:10176000F7D170BD0C00002070000020FEE770472C
:101770000907090E002806DA00F00F0000F1E0204A
:1017800080F8141D704700F1E02080F800147047C5
:1017900070477047FFF7E2BA30B593B03021684622
:1017A000FEF758FD14210CA8FEF754FD1A48002539
:1017B000016841F080510160006800F08050119094
:1017C0001648016841F4804101600068022400F479
:1017D0008040119001200090000401908001CDE92B
:1017E0000640192008904FF4A870CDE909040420A0
:1017F0000B906846FFF718FC0CA90F2081E8310018
:101800004FF4A0500F90E002109005210CA8FFF7B4
:1018100031FB13B030BD0000403802400070004082
:101820001048016841F4700101600F48016841F0FF
:10183000010101600C4A00210832116002680B4B63
:101840001A400260031D0A4A1A60026822F48022CC
:10185000026005480C300160024958068039086072
:101860007047000088ED00E000380240FFFFF6FE00
:1018700010300024FEE700000FB4084B10B504A997
:1018800002AA039800F0DEF8044602A9002000F046
:1018900070FC204610BC5DF814FB000073210008AA
:1018A00002E008C8121F08C1002AFAD17047704729
:1018B000002001E001C1121F002AFBD17047000087
:1018C0002DE9FF5F82B00021DDE90430020DDDF873
:1018D00040B0034318D044F61050A2F2FF32424306
:1018E0001514119801281FD0A5EB0B00401C5FEACE
:1018F000000A4FF000064E4FDFF83891B0465046D0
:1019000015D5CAF1000413E0119801244AA3012857
:1019100001D16FEA0B010298119AC0E90031C0E9C8
:10192000024206B0BDE8F09FCBF10000DFE70446BD
:101930000021404A491842EB0450CDE9001012E062
:10194000E00707D032463B4640464946FEF77CFD5D
:101950008046894632463B4610461946FEF774FDDE
:1019600006460F466410002CEAD1DDE90401DDE9EA
:101970000023BAF1000F06DAFEF766FD42464B4639
:10198000FEF762FD05E0FEF7D1FD42464B46FEF74D
:10199000CDFD04460E460022284BFEF74FFE03D82D
:1019A0004FF0FF30014607E00022254B204631462C
:1019B000FEF7A3FCFEF729FE102409E0002C0ADB49
:1019C0000A220023FEF7FCFB039B30321A55641EEB
:1019D00050EA0102F2D1641C039AC4F111031444C9
:1019E000119A012A03D0012208430DD10AE00843CD
:1019F00004D000204FF0110B119072E7A3EB0B0500
:101A00006D1E0DE05B4504DD4FF0000205F10105A0
:101A100004E003DA4FF00002A5F10105002AECD042
:101A200002981199C0E90231C0E9004579E7000048
:101A3000000014400000F03F300000000000F043C0
:101A40000000E03F2DE9FF4F95B09B4689460646D2
:101A500000250FE2252877D100242746F84A0121E6
:101A6000059400E0044316F8013F203B01FA03F01F
:101A70001042F7D130782A2811D06FF02F03307838
:101A8000A0F13002092A16D8059A44F0020402EBAC
:101A9000820203EB42021044761C0590EFE759F8EE
:101AA000042B0592002A03DA504244F400540590B6
:101AB00044F00204761C30782E2816D116F8010F57
:101AC00044F004042A280DD06FF02F023078A0F1E2
:101AD0003003092B09D807EB870302EB4303C71830
:101AE000761CF3E759F8047B761C30786C280FD00D
:101AF00006DC4C2817D068280DD06A2814D104E0E1
:101B0000742810D07A280FD10DE044F400140AE0B4
:101B100044F4801401E044F440147278824202D10B
:101B200004F58014761C761C307866280BD013DC04
:101B3000582877D009DC002875D04528F6D04628EB
:101B4000F4D047281AD19DE118E0632835D06428E5
:101B500079D0652812D195E1702873D008DC672808
:101B6000F1D069286FD06E280DD06F2806D1B5E06E
:101B700073282CD0752875D0782874D05A461799B8
:101B800090476D1C75E1C4F30250022809D0032868
:101B90000DD0D9F8001004280DD00D6009F104090A
:101BA00067E1D9F80010EA17C1E90052F6E7D9F861
:101BB00000100D80F2E70D70F0E719F8041B8DF8A6
:101BC000001000208DF80100EA46012003E059F8DA
:101BD00004AB4FF0FF3061074FF0000102D40DE07D
:101BE00008F101018846B9420FDA8045F8DB1AF89E
:101BF00008100029F4D108E008F10101884681426B
:101C0000FADB1AF808100029F6D105985B46A0EB1C
:101C1000080721463846179A00F094FA284400EB4A
:101C2000080507E04DE029E10DE01AF8010B5A46DE
:101C300017999047B8F10108F7D25B46214638461C
:101C4000179A13E142E00A220092C4F302524FF0C5
:101C5000000A022A08D059F804CB032A4FEAEC7193
:101C60000AD00DE029E02AE009F1070121F007027E
:101C7000F2E802C1914609E00FFA8CFC4FEAEC71E0
:101C8000042A03D14FFA8CFC4FEAEC71002907DAE1
:101C90000A460021DCF1000C61EB02012D2202E07A
:101CA000220504D52B228DF80420012203E0E2074F
:101CB00001D02022F7E7904659E00A2102E01022E5
:101CC0000DE010214FF0000A00910BE010224FF0C0
:101CD000000A44F004040827009203E008224FF0B1
:101CE000000A0092C4F30252022A05D059F804CB2C
:101CF0000021032A08D009E009F1070121F00702B9
:101D0000F2E802C1914605E01FFA8CFC042A01D1D9
:101D10000CF0FF0C4FF00008220728D5702806D0E1
:101D2000009B83F0100353EA0A0305D00EE0402223
:101D30008DF80420012208E05CEA010206D030227E
:101D40008DF804208DF8050002229046009B83F058
:101D5000080353EA0A030AD15CEA010201D16207CF
:101D600005D530228DF804204FF001087F1E582839
:101D700004D034A003900EA802900DE036A0F9E73D
:101D800053466046009AFEF71BFA84460398825C2D
:101D90000298401E029002705CEA0100F0D10298A5
:101DA00006A9081A00F1200A600702D524F480343D
:101DB00000E00127574502DDA7EB0A0000E0002004
:101DC00000EB0A01009005984144401A0590E00399
:101DD00006D45B462146179A059800F0B3F90544EE
:101DE000002706E001A85A46C05D179990476D1C70
:101DF0007F1C4745F6DBE0030CD55B462146179A6E
:101E0000059800F09FF9054404E030205A461799E0
:101E100090476D1C0099481E00900029F5DC08E0F1
:101E2000029802995A460078491C029117999047E6
:101E30006D1CBAF10001AAF1010AF1DC65E10000B4
:101E40000928010030313233343536373839616290
:101E50006364656600000000303132333435363754
:101E600038394142434445460000000000F058F92B
:101E70000544761C307800287FF4ECAD19B0284674
:101E8000BDE8F08F620700D4062709F1070222F0AF
:101E9000070CFCE80223E14603F000485FEA080C67
:101EA00002D00FF2702C0DE05FEA045C02D50FF255
:101EB000682C07E05FEAC47C02D00FF2602C01E0DE
:101EC000AFF2700C4FF0FF3823F00043CDF850C054
:101ED00065280CD006DC452809D046281DD04728A7
:101EE0003DD13DE0662818D067287ED138E000213A
:101EF000112F01DB112000E0781CCDE9000106A9BB
:101F00000EA8FFF7DDFCDDE90F010E9A0391002119
:101F1000009207F1010A04914DE04FF00040009754
:101F2000CDE9011006A90EA8FFF7CAFCDDE90F02F2
:101F300003920E9B11990022DDF80CA000930492ED
:101F400011B9791C00EB010AB7EB0A0004D4C0F107
:101F5000FF3007F1010A0490AAEB0700019044E06A
:101F6000012F00DA01270021112F01DD112000E0EF
:101F70003846CDE9000106A90EA8FFF7A1FCDDE96E
:101F80000F010E9A0391002104910092BA46210795
:101F90000CD40399514500DA8A46BAF1010F05DDE8
:101FA000009AAAF10101515C302908D0B84202DA46
:101FB00010F1040F06DA0121CDE9011015E0AAF1B4
:101FC0000101E9E7002805DC049901440491AAEB2A
:101FD000000102E0411C514500DD8A460499401A87
:101FE000401C01904FF000400290200704D401985B
:101FF000504501DBCDF8048000208DF84F00029899
:102000000DF14F07B0F1004F25D02B200E90029814
:102010004FF0020800280CDA404202902D200E906A
:1020200007E00A210298FEF733F93031029007F8F1
:10203000011DB8F10001A8F10108F2DC02980028A6
:10204000EFD1791E0E980870307800F0200040F033
:10205000450007F8020D12A8C01B00F107081498EC
:10206000007800B1012000EB0A01019801EBE0715A
:1020700005984144401A401E0590E00306D45B4693
:102080002146179A059800F05DF8054414980078E9
:1020900018B15A46179990476D1CE00324D55B464A
:1020A0002146179A059800F04DF805441CE0049865
:1020B000002807DBDDE90301884203DD0098405C6E
:1020C000179901E0179930205A469047049805F176
:1020D0000105401C04900198401E019004D12E205F
:1020E0005A46179990476D1CBAF10001AAF1010AEE
:1020F000DDDC05E017F8010B5A46179990476D1C77
:10210000B8F10001A8F10108F4DC5B462146179AFA
:102110000598ABE62D0000002B0000002000000019
:102120002DE9F041044600251E461746880404D4D4
:1021300005E039462020B0476D1C641EF9D52846BD
:10214000BDE8F0812DE9F041044600251E46904689
:10215000C80301D5302700E02027880404D505E016
:1021600041463846B0476D1C641EF9D52846BDE887
:10217000F0810A68531C0B601070704770B52A22FA
:1021800012491348FEF74DF8104C608D104D6885CC
:10219000E06AE862206B2863092204F1340105F14A
:1021A0003400FEF73EF894F83D0085F83D0094F8C1
:1021B0003E0085F83E00206C2864606C6864A06C6A
:1021C000A864E06CE864206D286570BD1C000020E8
:1021D000700000202DED028B82B0FEF7C7FDFFF7E7
:1021E000DBFA28480021026842F08002026002689F
:1021F00002F080020092026842F00202026000686F
:10220000214A00F00200009020480260204AC0E904
:1022100001214FF48042C0E9031241618161C16133
:102220000162FEF797FBFFF78BFAFFF7CFF9082063
:10223000FFF7C0F901210846FFF71CFA0121084603
:10224000FFF718FA13A0FFF7F9F901210220FFF7B1
:1022500011FA16A0FFF7F2F99FED188A0121032069
:10226000FFF708FAB0EE480A15A0FFF7D2F90121EE
:102270000420FFF7FFF99FED170A17A0FFF7C9F930
:10228000FEE7000030380240005400401C000020EF
:10229000A08601004E677579656E205675204E67E1
:1022A0007579656E205955500000000048454C4C2A
:1022B0004F20574F524C442121210000AE47E13FAF
:1022C00043686965752063616F3A20252E32662068
:1022D0006D0000000000484243616E206E616E6731
:1022E0003A20252E3066206B6700000000010203B3
:1022F0000405060708090A0B0C0D0E0F1011121326
:10230000404142434445464748494A4B4C4D4E4F55
:10231000505152531415161718191A1B1C1D1E1F45
:1023200020212223242526275455565758595A5BD5
:102330005C5D5E5F6061626364656667000000000B
:102340000000000001020304060708090000000065
:102350000102030474230008000000201C00000098
:10236000A0180008902300081C000020AC04000006
:10237000B01800080100000010000000000000007C
:102380004EF0010000000000000000000024F400F6
:040000050800018965
:00000001FF
