:020000040800F2
:10000000000600209D010008BB2800080D23000801
:10001000B9280008D5090008CF2B0008000000000F
:10002000000000000000000000000000DF280008C1
:10003000890A000800000000DD280008E128000807
:10004000B7010008B7010008B7010008B7010008B0
:10005000B7010008B7010008B7010008B7010008A0
:10006000B7010008B7010008B7010008B701000890
:10007000B7010008B7010008B7010008B701000880
:10008000B7010008B7010008B7010008B701000870
:10009000B7010008B7010008B7010008B701000860
:1000A000B7010008B7010008B7010008BD29000822
:1000B000C9290008B7010008B7010008B701000806
:1000C000B7010008B7010008B7010008B701000830
:1000D000B7010008B7010008B7010008B701000820
:1000E000B7010008B7010008B7010008B701000810
:1000F000B7010008B7010008B7010008B701000800
:10010000B7010008B7010008B7010008B7010008EF
:10011000B7010008B7010008B7010008B7010008DF
:10012000D9090008B7010008B7010008B7010008A5
:10013000B7010008B7010008B7010008B7010008BF
:10014000B7010008B7010008B7010008B7010008AF
:10015000B7010008B7010008B7010008B70100089F
:10016000B7010008B7010008B7010008B70100088F
:10017000B7010008B7010008B7010008000000003F
:10018000B7010008B7010008DFF80CD000F02AFB27
:1001900000480047893500080006002006488047CF
:1001A00006480047FEE7FEE7FEE7FEE7FEE7FEE75C
:1001B000FEE7FEE7FEE7FEE769290008890100087F
:1001C0002DE9F05F0546002092469B46884606468C
:1001D000814640241BE0284641464746224600F01F
:1001E00086F953465A46C01A914110D31146184613
:1001F000224600F06DF92D1A67EB01084F462246A2
:100200000120002100F064F917EB00094E41201E87
:10021000A4F10104DFDC484631462A464346BDE8E6
:10022000F09F40EA01039B0703D009E008C9121FB1
:1002300008C0042AFAD203E011F8013B00F8013BA0
:10024000521EF9D27047D2B201E000F8012B491ECC
:10025000FBD270470022F6E710B513460A46044663
:100260001946FFF7F0FF204610BD2DE9FE4F81EA49
:10027000030404F0004421F0004100944FF0000B0F
:1002800023F0004350EA01045ED052EA03045BD03D
:10029000C3F30A54C1F30A552C44A4F2F334019475
:1002A000A0FB0254C1F3130141F48011C3F3130303
:1002B00043F4801301FB024400FB034E840A970AB7
:1002C00044EA815447EA8357A4FB076802958D0AE4
:1002D00005FB07854FEA932C04FB0C542705029D70
:1002E0004FEA065847EA1637B5EB08056EEB070CE0
:1002F000870E920E47EA811742EA8312A7FB02019A
:10030000B6EB0B0164EB00042B0D43EA0C335E18D3
:1003100044EB1C50DA465146E7FB0201C5F31304D7
:100320004FEA0B3343EA14534FEA0432019C43EA89
:100330000603A4F10C040294009CCDE900B400F083
:100340002CF903B0BDE8F08F00200146F9E72DE954
:10035000F04D81EA030404F0004B21F000451446FF
:100360004FF0000A23F0004150EA050220D054EA81
:1003700001021DD0C5F30A570246C5F31303C1F3AA
:100380001300C1F30A5640F4801543F48013A7EB21
:100390000608101BD64608F2FD3873EB050002D3A1
:1003A00008F1010801E092185B41B8F1000F03DA8F
:1003B00000200146BDE8F08D00204FF48011064674
:1003C00084460EE0171B73EB050705D3121B63EB86
:1003D000050306434CEA010C49084FEA3000921825
:1003E0005B4150EA0107EDD152EA030012D082EAE4
:1003F000040083EA0501084305D0101BAB4106D277
:100400000122002306E000224FF0004302E06FF0DB
:10041000010253101AEB06004CEB085110EB0A00D6
:1004200041EB0B01BDE8F04D00F0A8B80EB540F26D
:10043000334102910021CDE900110A460B4600F03C
:10044000ACF803B000BD00F0004230F000400AD02C
:10045000C10D01F56071C0F3160042EA0151C208F6
:1004600040071143704700200146704701F00043E8
:1004700030B421F0004150EA010206D00A0DA2F585
:100480006072C1F31301002A02DC30BC0020704707
:10049000440F44EAC104C100E01830BC00EBC25074
:1004A00000F035B830B50B4601460020202201246B
:1004B00009E021FA02F59D4205D303FA02F5491B32
:1004C00004FA02F52844151EA2F10102F1DC30BD48
:1004D000202A04DB203A00FA02F100207047914004
:1004E000C2F1200320FA03F3194390407047202AF9
:1004F00004DB203A21FA02F00021704721FA02F3CE
:10050000D040C2F1200291400843194670470029AB
:10051000A8BF7047401C490008BF20F00100704789
:1005200010B4B0FA80FC00FA0CF050EA010404BFE9
:1005300010BC704749B1CCF1200421FA04F411FA3F
:100540000CF118BF012121430843A3EB0C01CB1D83
:100550004FEA00614FEA102042BF002010BC7047F4
:1005600000EBC35010440029A4BF10BC7047401CCE
:10057000490008BF20F0010010BC704710B5141EE0
:1005800073F1000408DA401C41F1000192185B414C
:100590001A4301D120F0010010BD2DE9F04D924623
:1005A0009B4611B1B1FA81F202E0B0FA80F220323A
:1005B0009046FFF78DFF04460F4640EA0A0041EAE5
:1005C0000B0153465A46084313D0114653EA010023
:1005D00019D0C8F140025046FFF789FF05460E4684
:1005E000504659464246FFF773FF084305D00120A5
:1005F00004E020463946BDE8F08D0020054346EA78
:10060000E0762C4337430A986305E40AA0EB080020
:100610000022FD0A44EA47540A3002D50020014670
:10062000E9E7010510196941DDE90845001969414B
:10063000BDE8F04DA2E72DE9FE4F804681EA0300B8
:10064000C00F0C46009021F0004123F00045B8EBAC
:100650000200A94105D24046214690461C460B4661
:10066000024623F00040104347D0270DC7F30A008D
:10067000C3F30A510290401A019040286BDAC3F389
:10068000130040F4801B0098924620B10023D2EB67
:10069000030A63EB0B0B01985946C0F14002504628
:1006A000FFF716FF06460D4650465946019A00F0E0
:1006B000ABF810EB08006141002487EA115284EA8C
:1006C000E7731A4340D0009A62B3019A012A4FEAB5
:1006D000075215DC001B61EB02014FF0004202EAF9
:1006E0000752CDE90042001C41F5801132462B46ED
:1006F000FFF753FF03B0BDE8F08F40462146F9E70E
:10070000001B61EB0201001C41F5801300185B41E6
:100710002018A2F5001747EB030140EAD570B6197F
:100720006D4111E06D084FEA360645EAC0754FEAA3
:100730000752001B61EB0201001C41F580114908C2
:100740004FEA30000019514132462B4603B0BDE854
:10075000F04FFFF713BF0098012240000023D0EBB9
:10076000020263EBE073009821464FEAE074B8EBB5
:10077000000061EB0401E9E783F000435BE781F0EF
:10078000004158E7C1F30A52C1F3130140F2FF33AD
:1007900041F480119A4202DA00200146704740F28B
:1007A00033439A42A2F2334202DC5242FFF79FBE29
:1007B000FFF78EBE30B5041E71F1000404DB4FF06C
:1007C0000044404264EB0101141E73F1000405DB98
:1007D0001C464FF00043524263EB0403994208BFAA
:1007E000904230BD064C074D06E0E06840F0010342
:1007F00094E8070098471034AC42F6D3FFF7C8FCE2
:1008000080370008A0370008202A06DBCB17203AE3
:1008100041FA02F043EAE07306E041FA02F3D04005
:10082000C2F12002914008431946704710B50146B5
:10083000806B026C12F0500F05D0806BC26CBDE86B
:10084000104008461047016C41F4007101640168D2
:100850008A6812F0405F17D18269AAB9CA6A12F495
:10086000700F02D08A6852050ED44A6822F0200226
:100870004A60016C21F480710164016CC90403D4E5
:10088000016C41F00101016400F0A6F910BD10B542
:10089000806B40210164416C41F00401416400F02F
:1008A0009DF910BD10B5806B00F097F910BD0000E8
:1008B000454910B54A6822F440324A604A684368A4
:1008C0001A434A6001684A6822F480724A600168EB
:1008D0004A68036942EA03224A6001684A6822F0D2
:1008E00040724A6001684A6883681A434A60016836
:1008F0008A6822F400628A6001688A68C3681A43C1
:100900008A60816A6FF07062D14201688A6822F061
:1009100070628A6001688A680CD0836A1A438A60B0
:1009200001688A6822F040528A6001688A68C36A56
:100930001A4301E022F040528A6001688A6822F07E
:1009400002028A6001688A68836942EA43028A6017
:10095000016A002901684A680FD042F400624A60C7
:1009600001684A6822F460424A6001684A68174C8C
:10097000436A04EB43331A4301E022F400624A6005
:100980000168CA6A22F47002CA620168CA6A838B6B
:100990000F4C04EB03531A43CA6201688A6822F4BD
:1009A00000728A6001688A68036B42EA43228A60A7
:1009B00001688A6822F480628A6001688A684069F6
:1009C00042EA8020886010BD0023014000E0FFFF64
:1009D0000000F0FFFEE70000014800F0F7B900005A
:1009E0004801002001681823CAB2103AB2FBF3F2A2
:1009F000054B6FF30901032A9B5CC36500D9091DF0
:100A000081650846704700006037000810B5014650
:100A100000208B698A6A4FF0C07453B1B3F5005F50
:100A200015D072B1012A0CD0022A0AD0032A09D1AA
:100A300004E01AB1012A06D0022A03D1C96AC90109
:100A400000D5012010BDC96AA142FAD010BD002A0C
:100A5000F7D0012AF2D0022AF3D0032AF3D010BD36
:100A600030B50468256825F4802525600468636036
:100A70008368402B036803D099600068C26030BD72
:100A80009A600068C16030BD7047704778B5002437
:100A9000009490F83C20012A19D0012280F83C20D3
:100AA0000A6807230568092A13D9EE680A3A02EB97
:100AB000420293409E43EE600B788A680A3B03EB48
:100AC00043039A400368DD682A43DA6010E002209D
:100AD00078BD2E6902EB420293409E432E610B7853
:100AE0008A6803EB43039A4003681D692A431A612D
:100AF0004A681F23072A13D205686E6B521E02EB49
:100B0000820293409E436E630B790A885B1E92B209
:100B100003EB83039A4003685D6B2A435A6327E023
:100B200005680D2A12D22E6BD21F02EB820293406F
:100B30009E432E630B790A88DB1F92B203EB83037B
:100B40009A4003681D6B2A431A6311E0EE6A0D3A5E
:100B500002EB820293409E43EE620B790A880D3BC2
:100B600092B203EB83039A400368DD6A2A43DA6298
:100B7000164B0568144A9D4206D10D68122D03D10B
:100B8000556845F48005556005689D4218D10B688D
:100B9000102B01D0112B13D1536843F40003536081
:100BA000096810290CD10A490A4A0968B1FBF2F117
:100BB00001EB8101490000E0491E00910029FBD1B1
:100BC00080F83C40002078BD002301400020014017
:100BD0003000002040420F0070477047704770B5EA
:100BE00004004FF0000503D0206C002610B107E090
:100BF000012070BD666484F83C60204600F01AF85D
:100C0000206CC00610D4206C20F4885040F0020004
:100C100020642046FFF74CFE6664206C20F0020042
:100C200040F00100206400E0012584F83C60284683
:100C300070BD000070B586B0064614216846FFF707
:100C400009FB1D493068884234D11C4800250168E1
:100C500041F480710160006800F4807005901748CD
:100C60001438016841F0010101600068694600F034
:100C700001000590102000900320CDE901051048E7
:100C800000F02CFA104C0F48C4E900050015A560CF
:100C9000C4E90350400060618000A0614011C4E9D4
:100CA00007052046656200F061F908B1FFF7EDFE27
:100CB000B463A66306B070BD002001404438024012
:100CC000000002401064024048010020F8B50E46C2
:100CD00000210446009190F83C00012807D0012033
:100CE00084F83C0020688368DB0702D011E0022012
:100CF000F8BD836843F0010383602D482D4B0068E5
:100D0000B0FBF3F000EB400000E0401E0090002834
:100D1000FBD120688368DB0748D0236C40F2016573
:100D2000AB4343F4807323644068400505D5206CD1
:100D300020F4005040F480502064206CC00404D59E
:100D4000606C20F00600606400E0616484F83C1090
:100D5000A16B1A48184DC863A16B19480864A16BB0
:100D60001848C86421686FF0220008602068416854
:100D700041F0806141602068816841F48071816048
:100D80002168134632464C31A06B00F059F968686F
:100D9000C006206802D00C49884207D1816811F052
:100DA000405F03D1816841F0804181600020F8BD3F
:100DB0003000002040420F00002301402D080008B1
:100DC000A50800088F080008002001402DE9F8431D
:100DD00004464FF00009CDF8009063484FF41651D7
:100DE000A56D0068B0FBF1F72E6894F85C10082040
:100DF00000FA01F131420FD021680A6852070BD581
:100E00000A6822F004020A6094F85C108840A86026
:100E1000606D40F00100606594F85C104FF00108CF
:100E200008FA01F0304208D021684969090604D562
:100E3000A860606D40F00200606594F85C100420CA
:100E40008840304208D021680968890704D5A86025
:100E5000606D40F00400606594F85C1010208840DC
:100E6000304218D021680968090714D5A8602068A5
:100E70000168490304D50068000308D5A16C07E0A8
:100E80000168C90503D4016821F008010160216CE3
:100E900009B12046884794F85C10202088403042F1
:100EA00031D021680968C9062DD5A86094F83500AD
:100EB00005282068016806D0490347D5006800036B
:100EC0001DD4616C1CE021F01601016020684169AD
:100ED00021F080014161206C08B9A06C20B120682C
:100EE000016821F00801016094F85C103F208840FF
:100EF000A86084F8349084F83580216D1FE0E16BA0
:100F000009B120468847606D00282BD0606DC0076E
:100F100014D0052084F835002068016821F0010113
:100F200001600098401C0090B84203D82068006817
:100F3000C007F6D184F8349084F83580E16C00293C
:100F400010D001B02046BDE8F04308470168C9054C
:100F5000D5D4016821F01001016084F8349084F840
:100F60003580CCE7BDE8F883300000202DE9F04162
:100F7000044600F091F906465CB1002584F834502F
:100F8000022084F835002068016821F00101016029
:100F90000DE00120BDE8F08100F07EF9801B0528FE
:100FA00005D920206065032084F83500F2E7206829
:100FB0000068C007F0D12268116820480140D4E9D8
:100FC00001031843D4E903363343184363691843D4
:100FD000A3691843E3691843236A18430843616A05
:100FE000042903D1D4E90B13194308431060206886
:100FF0004069666A20F0070130460E430127042845
:101000000CD1A06A0643E06A40B12046FFF7FEFC1F
:1010100020B14020606584F83570BAE720684661E9
:101020002046FFF7DFFC94F85C203F21914081606F
:10103000656584F835700020ACE700003F8010F053
:101040002DE9F0410446866D90F834000025012812
:101050000DD0012084F8340094F835700020012F61
:1010600007D084F8340002252846BDE8F08102202C
:10107000FBE7022784F8357060652046FFF7F0FC37
:1010800094F85C103F208840B0602068016841F00F
:10109000160101602068416941F080014161206CC6
:1010A00020B12068016841F00801016020680168F2
:1010B00041F001010160D7E770B5044600F0ECF89B
:1010C0000546601C02D004480078044400F0E4F8AF
:1010D000401BA042FAD370BD240000202DE9F84F38
:1010E000DFF87CB100224FF001084FF0030A4FF007
:1010F0000F090BF1040E00BF0B6808FA02F423403D
:10110000A3426ED14D68022D01D0122D0ED1D5080B
:1011100000EB850CDCF820505607F70E09FA07F6AD
:10112000B5430E69BE402E43CCF8206006685500DA
:101130000F790AFA05FC07F0030726EA0C06AF4010
:10114000374307604E68012E05D0022E03D0112EC2
:1011500001D0122E0ED18668CF6826EA0C06AF4069
:10116000374387604668A6430C79C4F30014944063
:1011700034434460C6688C6826EA0C06AC403443AD
:10118000C4604C68E40065D5364C256845F480455C
:101190002560246822F0030504F480440094324C56
:1011A0002E19D6F8084895072F0F09FA07F5AC4312
:1011B0002E4DA84201D1002524E02D4DA84201D199
:1011C00001251FE02B4DA84201D102251AE02A4D2E
:1011D000A84201D1032515E0284DA84202D10425DB
:1011E00010E037E0264DA84201D105250AE0254D43
:1011F000A84201D1062505E0234DA84201D10725CB
:1012000000E00825BD402543C6F80858DBF800403B
:101210005D464E689C43F60300D51C432C60DEF807
:10122000004075464E689C43B60300D51C432C60B5
:101230000B4D08352C684E689C43F60200D51C43C4
:101240002C60074D0C352C684E689C43B60200D5C7
:101250001C432C60521C102AFFF44EAFBDE8F88FDF
:10126000003C014044380240003001400000024090
:101270000004024000080240000C0240001002403E
:101280000014024000180240001C02400AB18161B3
:1012900070470904FBE700000148806870470000C0
:1012A0002400002070B5040004D094F83D0000250F
:1012B00010B106E0012070BD84F83C50204600F0DB
:1012C000C1F9242084F83D002068016821F0010163
:1012D000016000F01BFB33492268B0FBF1F1516063
:1012E000314A6368934206D94FF4967359434FF4D9
:1012F0007A73B1FBF3F12368491C1962616891426A
:101300000BD84900B0FBF1F2C2F30B02042A01D260
:10131000042019E0B0FBF1F016E0A3689BB301EBE9
:10132000C10202EB0112B0FBF2F242F4804212055C
:1013300030D04BB301EBC10202EB0111B0FBF1F075
:1013400040F4804040F400402168C861D4E90701BE
:10135000084321680860D4E90310084321688860C5
:10136000D4E9050108432168C8602068016841F09C
:10137000010101602564202084F83D00256384F884
:101380003E50002070BD00E006E001EB4102B0FBE2
:10139000F2F2CCE70120D7E701EB4101B0FBF1F01D
:1013A000D0E7000040420F00A08601002DE9FF4F6A
:1013B00081B099468B4604464FF00108FFF76CFF59
:1013C000054694F83D0020287BD1192301224D4980
:1013D0002046009501F021F8002872D194F83C00D5
:1013E00001286ED0012084F83C0020680168C907FC
:1013F00003D1016841F0010101602068016821F416
:1014000000610160242084F83D00002626643E48E7
:10141000E06220272068016841F4807101604B463A
:1014200000224FF001112046009500F0F6FF002841
:1014300058D121680BF0FE000861FFF72DFF2168ED
:10144000054648694969C0F3400094F83D20C1F35E
:1014500080214FF0A00A12E0B9F1000F04D0FFF78D
:101460001BFF411B494501D984F83DA0216848690B
:101470004969C0F3400094F83D20C1F3802108433E
:1014800001D1A02AE8D184F83D7020684169C943A0
:10149000890717D4016841F400710160206841692F
:1014A00080691923012217492046009500F0B5FFF5
:1014B000C0B984F83D7084F83C60002005B0BDE8F8
:1014C000F08F1DE0016841F40071016021686FF444
:1014D00080604861192301220A492046009500F0E6
:1014E0009CFF08B10320E9E74146039808F1010891
:1014F00081428FD384F83D7084F83C600120DDE7A1
:101500000220DBE7020010000000FFFF2DE9F84F8A
:101510001F4690468A460446DDF82890FFF7BCFE39
:10152000064694F83D0020287ED119230122434924
:101530002046009600F071FF00287DD194F83C0011
:10154000012879D0012084F83C0020680168C9078F
:1015500003D1016841F0010101602068016821F4B4
:1015600000610160212084F83D00102084F83E00D5
:1015700000252564C4F8248067853148E062608DC9
:10158000208533464A465146204600F0D5FE28B114
:10159000206C84F83C5004284CD00DE02068416950
:1015A0008069009030E032464946204600F0AAFFAC
:1015B00028B1206C042838D00320BDE8F88F606A79
:1015C000411C6162216800780861608D401E608561
:1015D000208D401E80B2208521684A69D24352077F
:1015E0000BD450B1606A421C626200780861608D61
:1015F000401E6085208D401E20853246494620468B
:1016000000F0E4FE0028D4D1208D0028CBD154F87E
:101610003D0B016841F400710160202004F81E09AF
:10162000E57765770020C8E706E02068016841F4A7
:10163000007101600120C0E70220BEE70200100037
:101640000000FFFF10B586B0044614216846FEF77F
:1016500001FE13492068884220D11248016841F0F8
:10166000020101600068694600F002000590C02098
:10167000009012200190012002900320039004208A
:1016800004900948FFF72AFD06481030016841F42C
:1016900000110160006800F40010059006B010BD54
:1016A0000054004030380240000402400248816883
:1016B0000278114481607047240000200B4810B567
:1016C000016841F400710160016841F480610160CA
:1016D000016841F480710160032000F06DF8002082
:1016E00000F006F800F024F8002010BD003C024095
:1016F00070B50D4D04464FF47A712878B1FBF0F0C7
:101700000A490968B1FBF0F000F0CEFA48B9102C94
:1017100007D200222146501E00F02EF800206C60F7
:1017200070BD012070BD00002400002030000020AA
:101730000A4808B5016841F480410160006800F47E
:10174000804000900548001F016841F08051016011
:10175000006800F08050009008BD0000443802404E
:1017600000F01F02012191404009800000F1E020BB
:10177000C0F8001170470000F0B40E4B1B680C4617
:10178000C3F30223C3F10705042D00D90425191D55
:10179000072901D2002300E0DB1E012606FA05F12D
:1017A000491E214099409E40761E16403143F0BCB0
:1017B00001F084B80CED00E0064900F0070208686B
:1017C0004FF6FF03184040EA0220034A1043086026
:1017D000704700000CED00E00000FA052DE9F0472D
:1017E0000E46050065D0DFF81481D8F80000F7B286
:1017F00000F00F00B04207D288F80070D8F800005F
:1018000000F00F00B04254D128683D4C810712D53A
:10181000400703D5206840F4E05020602878000796
:1018200003D5206840F4604020602068A96820F05B
:10183000F000084320602878C0072DD03049686840
:101840000839012812D0022813D0032811D00968C2
:10185000890700292DDA216821F003010143216065
:10186000FFF71AFD814641F2883A0EE009688903C4
:10187000EFE709688901ECE7FFF70EFDA0EB09012E
:10188000514502D90320BDE8F0872068696800F05F
:101890000C00B0EB810FEFD1D8F80010404601F0FA
:1018A0000F01B14207D90770006800F00F00B04285
:1018B00001D00120E7E72878400705D52068E968CE
:1018C00020F4E050084320602878000706D52068FF
:1018D000296920F4604040EAC100206000F026F849
:1018E0002168084AC1F30311515CC84006490860E9
:1018F0000020FFF7FDFE0020C5E70000003C02408D
:1019000008380240683700083000002004480549C4
:1019100000680968044AC1F38221515CC8407047DD
:10192000300000200838024078370008154810B50C
:10193000006810F00C02144813D04110042A0FD094
:10194000082A0ED10F4C241F2268236802F03F02A0
:101950005B0207D52068C0F38810A0FB010106E0F8
:10196000084610BD2168C1F38811A1FB00010023C6
:10197000FEF726FC2168C1F30141491C4900B0FB78
:10198000F1F010BD083802400024F4002DE9F84FB2
:10199000050076D02878DFF8F8B2BE4CC00749D0F1
:1019A000DBF800105846C1F38101012908D0006816
:1019B000C0F3810002280AD1201D0068400206D52C
:1019C0002068800336D568680028E2D032E0686875
:1019D000B0F5803F10D0B0F5A02F206810D020F4D3
:1019E00080302060206820F4802020606868A0B1EA
:1019F000FFF752FC06460CE0206840F48030F4E724
:101A000040F480202060F7E7FFF746FC801B642845
:101A100073D820688003F7D50CE0FFF73DFC06463D
:101A200005E000BFFFF738FC801B6428F0D8206871
:101A30008003F7D42878DFF8608280074FF0000930
:101A40003ED5DBF80010584611F00C0F09D00068A5
:101A5000C0F3810002280BD18D48001F00684002AE
:101A600006D42068800715D5E868012809D111E05F
:101A7000E868B8B10120C8F80000FFF70DFC064681
:101A800005E002E1FFF708FC801B0228C0D82068AF
:101A90008007F7D52068296920F0F80040EAC100E6
:101AA00020600DE0C8F80090FFF7F6FB064604E062
:101AB000FFF7F2FB801B02281FD820688007F7D4AD
:101AC0002878000722D5724E744869696C3671B166
:101AD00001210160FFF7E0FB074604E0FFF7DCFBB4
:101AE000C01B022809D830688007F7D50EE0C0F87F
:101AF0000090FFF7D1FB074605E083E0FFF7CCFB42
:101B0000C01B02287ED830688007F7D428784007A9
:101B100068D5DFF87CA100270AF1380ADAF800005E
:101B2000C0000BD4DAF8001041F08051CAF8001060
:101B3000DAF80000012700F080500090584E30681D
:101B4000C00510D4306840F480703060FFF7A4FB0B
:101B5000009005E0FFF7A0FB0099401A022851D839
:101B60003068C005F6D54A4EA868683601280FD0FF
:101B70000528306810D020F001003060306820F077
:101B800004003060A868B8B1FFF786FB00900FE052
:101B9000306840F00100F4E740F004003060F7E7FF
:101BA000FFF77AFB0099411A41F28830814264D8EC
:101BB00030688007F4D50EE0FFF76EFB009007E079
:101BC000FFF76AFB0099411A41F28830814254D8EC
:101BD00030688007F4D42FB1DAF8001021F080517A
:101BE000CAF80010A869C0B3DBF80010C1F3810186
:101BF00002294AD00228484607D0C8F86000FFF7FB
:101C00004BFB00E039E005463AE04746C8F8600083
:101C1000FFF742FB064604E0FFF73EFB801B02286D
:101C20002BD820688001F7D4D5E907010843A96AB9
:101C30001C4A490802EB01416A6A41EA82110843E1
:101C400095F82C1040EA01611148001F0160012045
:101C50003866FFF721FB054605E014E0FFF71CFBA3
:101C6000401B022809D820688001F7D50BE000BF8F
:101C7000FFF712FB401B022802D90320BDE8F88FB2
:101C800020688001F4D40020F8E70120F6E7000086
:101C9000083802400038024000004742800E4742A8
:101CA000007000400000FFFF10B5401EB0F1807FC3
:101CB00001D3012010BD4FF0E02460610F216017B7
:101CC00000F0FCFD0020A06107202061002010BD75
:101CD0007047704730B590F83820012A20D0012293
:101CE00080F83820022380F8393003685C6824F0DB
:101CF00070045C6003685C680D682C435C6003687A
:101D00009C6824F080049C6003689C6849680C43CC
:101D10009C6080F83920002180F83810084630BDDA
:101D2000022030BD10B5040003D094F8390010B182
:101D300007E0012010BD002084F83800204600F0A4
:101D40000DF8022084F83900211D206800F042FEC1
:101D5000012084F83900002010BD000010B586B0C5
:101D6000044614216846FEF775FA214A21680020CE
:101D7000914226D11F490A6842F001020A600968AF
:101D800001F0010105911B4914390A6842F0100263
:101D90000A60096801F0100105914FF4007100918B
:101DA0000221CDE9011003900120049069461248F8
:101DB000FFF794F9002211461B20FFF7DDFC1B20E2
:101DC00012E0B1F1804F11D10A48001F016841F0C3
:101DD000010101600068002200F001000590114639
:101DE0001C20FFF7C9FC1C20FFF7BAFC06B010BD91
:101DF0000000014044380240001002400168CA68F7
:101E000042F00102CA600068016841F0010101600E
:101E10000020704770B5044690F83800012817D0AC
:101E2000012584F83850022084F83900206882683F
:101E300022F0770222F47F4282600868502837D06F
:101E40000DDC202859D005DC88B3102841D151E0A1
:101E5000022070BD302853D040283AD13FE060289E
:101E60002ED070280BD0B0F5805F03D0B0F5005FA6
:101E70002FD110E02068816821F0070115E0CB68C0
:101E8000D1E90121206800F010FE2168886840F047
:101E9000770088601DE0CB68D1E90121206800F05F
:101EA00004FE2068816841F48041816011E01EE0F9
:101EB000CA684968206800F00AFE5021206806E0E0
:101EC000CA684968206800F055FE6021206800F06B
:101ED000F6FD84F83950002084F8380070BDCA68D7
:101EE0004968206800F0F3FD40212068EFE70021F9
:101EF0002068ECE710212068E9E720212068E6E768
:101F000030212068E3E700002DE9F041007E012840
:101F100024D1234C234D4FF6F576207870B101285B
:101F20001CD10021284600F0CEF9A06029680027C6
:101F30004F626168884213D9401A12E000211948A3
:101F400000F0C1F96060012020702868016A31400A
:101F500001622868016A41F002010162BDE8F08176
:101F6000081AE060FEF762FA9FED0F1B53EC112B8D
:101F7000FEF77BF99FED0E1B53EC112BFEF775F965
:101F8000FEF774FA606127702868016A31400162C7
:101F90002868016A0162C16821F00201C160DDE7C1
:101FA00000000020D0000020C3F5285C8FC2D53F80
:101FB000000000000000E03F2DE9F041044690F8E9
:101FC00038000D4601283DD0012684F838600220F3
:101FD00084F83900AAB3042A46D02068082A55D0CC
:101FE000D5E90027E968036A23F480530362D0F837
:101FF0001CC0036A2CF4407C4CEA07274FF6FF7C98
:1020000027F470470CEA013139434FF4204723F499
:10201000204307EA02321A43C16102622068C169A3
:1020200021F44061C1612068C169AA6841EA0221C6
:10203000C0F81C1084F83960002084F83800BDE82E
:10204000F08101E00220FAE7D5E90012EB68206890
:1020500000F04EFD2068816921F00C01816120684B
:102060008169AA6811430FE0D5E90012EB68206886
:1020700000F092FD2068816921F44061816120684F
:102080008169AA6841EA02218161D3E7D5E9002C80
:102090002F7B016A21F480710162C169036A21F01A
:1020A000030141EA0C0121F0F00C39074FF42067DD
:1020B0004CEA116123F4206307EA02221A43C1614A
:1020C00002622068C16921F00C01C1612068C16908
:1020D000AA681143ACE710B5040003D094F83900A6
:1020E00010B107E0012010BD002084F83800204620
:1020F00000F00CF8022084F83900211D206800F05F
:1021000069FC012084F83900002010BD704710B52B
:102110000268044631B1042908D0082915D00C29D9
:1021200008D116E0D06840F0020002E0D06840F02C
:102130000400D0600122206800F0ACFC2068016837
:1021400041F001010160002010BDD06840F008009E
:10215000EFE7D06840F01000EBE770B50446006888
:1021600001694FF00005C943890715D4C168C94307
:10217000890711D4E91E0161012020762068806959
:102180008007204602D0FFF7BFFE04E000F098F879
:10219000204600F096F8257620680169C943490772
:1021A00017D4C168C943490713D46FF00401016112
:1021B000022020762068806910F4407F204602D0FB
:1021C000FFF7A2FE04E000F07BF8204600F079F86B
:1021D000257620680169C943090716D4C168C94337
:1021E000090712D46FF008010161042020762068ED
:1021F000C0698007204602D0FFF786FE04E000F0A9
:102200005FF8204600F05DF8257620680169C94333
:10221000C90617D4C168C943C90613D46FF01001A9
:102220000161082020762068C06910F4407F2046B4
:1022300002D0FFF769FE04E000F042F8204600F00B
:1022400040F8257620680169C943C90708D1C168EB
:10225000C943C90704D1891E0161204600F032F844
:1022600020680169C943090609D4C168C943090640
:1022700005D46FF0800101612046FFF729FD206839
:102280000169C943490609D4C168C943490605D44F
:102290006FF040010161204600F037F820680169C5
:1022A000C94389060BD4C168C943890607D46FF0B6
:1022B000200101612046BDE87040FFF70ABD70BDF6
:1022C00070477047704790F838300022012B0AD0D1
:1022D000012380F8383041B1042909D008290AD0F7
:1022E0000C290DD10AE00220704701684A6B07E013
:1022F00001688A6B04E00168CA6B01E001680A6C3E
:10230000002180F83810104670477047FEE70168DA
:102310004A69D24352050CD46FF480624A610421A9
:102320000164002140F8301F202242730173012014
:102330007047002070470000F8B50446C06A1E468A
:102340000D461746042807D0012805D010F5803F18
:1023500002D0206B122804D12068016841F48071FA
:102360000160134600224FF001112046009600F054
:1023700054F8A0B92069B0F5804F12D0062021682A
:1023800000EAD51040F0F000086133463A460E49A5
:10239000204600F073F838B1206C042811D00320D7
:1023A000F8BD05F0FE0000E0E8B2216808610649CA
:1023B00033463A46891F204600F060F80028EBD1EA
:1023C000F8BD0120F8BD00000800010070B51646F8
:1023D0000D4604461AE02046FFF799FF08B1012098
:1023E00070BD681C12D025B1FEF756FF801BA842B5
:1023F0000CD954F8400F40F0200044F81009002098
:102400002060202161732073032070BD2068406923
:10241000C0434007DFD4002070BD2DE9F0471E46C1
:1024200090460D460446C1F30747DDF8209012E0C0
:10243000701C10D02EB1FEF72FFFA0EB0900B042A8
:1024400009D9002044F8300F20216173A073207354
:102450000320BDE8F0872068012F0AD0806925EAB3
:1024600000000004000C06D000214145E0D000200F
:10247000EFE74069F3E70121F7E700002DE9F047B6
:102480009A4691460D46044600264FF02008C1F3B7
:1024900007472AE020684069C043400512D42068FD
:1024A000016841F40071016021686FF48060486147
:1024B00004202064266384F83D8084F83C60012079
:1024C000BDE8F087B9F1FF3F0FD0B9F1000F05D09B
:1024D000FEF7E2FEA0EB0A01494506D944F8306F49
:1024E00084F80D8026730320EAE72068012F07D0C7
:1024F000D0F8180025EA00000004000CE0D0C9E77D
:102500004069F7E770B516460D4604461AE02046C6
:10251000FFF7FDFE08B1012070BD681C12D025B187
:10252000FEF7BAFE801BA8420CD954F8400F40F0C9
:10253000200044F8100900202060202161732073DE
:10254000032070BD20684069C0430006DFD400202E
:1025500070BD00000449082801D0002803D188710B
:10256000202000F0A5B870471800002010B5012009
:1025700000F07AF80A20FEF79FFD03480021C170A1
:102580000121817010BD00001800002010B501204D
:1025900000F06AF84FF47A70FEF78EFD022000F02A
:1025A00063F80520FEF788FD282000F05DF805207F
:1025B000FEF782FD0C2000F057F80520FEF77CFDA9
:1025C000802000F051F8BDE810404FF4FA70FEF79B
:1025D00073BD10B504469AB010EE100AFDF733FF34
:1025E00041EC100B214653EC102B684600F0F0FA3A
:1025F000684600F003F81AB010BD000070B50C4C2E
:1026000005460026E67008E06D1C00F051F8E07801
:10261000401CC0B2E070142803D028780028F3D101
:1026200070BDA0780121401C00F004F8EAE700002A
:10263000180000200A4A9070421E032A0ED84A1E33
:10264000132A0BD8074A00EB800002EB80000844F5
:1026500010F8150C40F0800000F006B8704700003C
:10266000180000201037000838B50F4C627800EAD7
:10267000020102EA0010A279114310432171E21D08
:10268000607141F004031370517040F004019170C7
:10269000D07000F04DFFC82000900423E21D217887
:1026A0000248FEF733FF38BD18000020A8010020C3
:1026B00038B5114C627800EA020102EA0010A279F2
:1026C00011432171104341F00503E21D6071137045
:1026D00041F00101517040F00501917040F001009E
:1026E000D07000F025FFC82000900423E21D21785F
:1026F0000248FEF70BFF38BD18000020A80100209B
:1027000070B53220FEF7D8FC00F012FF054D4FF4F3
:102710007A742346032229780348FEF747FE0028EF
:10272000F7D170BD18000020A80100201FB50021BE
:1027300010480091019102910D4A0391C0E90021D6
:1027400001240461816084610B4A0162C0E90A21AD
:10275000C46104634461C160FEF741FA0420CDE91D
:1027600000040620029069460248FEF78FF91FBD5B
:1027700000200140340000200100000F30B587B078
:1027800014216846FDF766FD19480024016841F0F0
:1027900080010160016801F080010591016841F04C
:1027A00001010160016801F001010591016841F03A
:1027B00010010160016801F010010591016841F00C
:1027C0000201016000680B4D00F00200059000223C
:1027D00008212846FEF75AFD082000900120CDE987
:1027E0000104694628460394FEF778FC07B030BD23
:1027F000303802400000024010B58AB000241A4868
:102800000494059406940794089409940094019400
:1028100002941449039401605321C0E901144FF656
:10282000FF71C0E903144461FFF77CFA4FF4805054
:10283000049004A90C48FFF7EDFA0B48FFF74BFC96
:10284000089408A908480994FFF744FA0120CDE943
:10285000004002940022694603480394FFF7ACFB52
:102860000AB010BD00000140D000002010B586B0B5
:1028700000241048009401940294039404944FF0AF
:102880008041059401605321C0E90114611EC0E933
:102890000314FFF747FA4FF480500090694605484B
:1028A000FFF7B8FA049404A902480594FFF712FA56
:1028B00006B010BD0C010020FEE770470907090EA5
:1028C000002806DA00F00F0000F1E02080F8141D67
:1028D000704700F1E02080F800147047704770479F
:1028E000FEF7E4BE30B593B030216846FDF7B2FC88
:1028F00014210CA8FDF7AEFC19480025016841F031
:1029000080510160006800F0805011901548016806
:1029100041F4804101600068022400F4804011907D
:1029200001200090000401908001CDE906400820BC
:1029300008904FF4A870CDE9090404200B90684674
:10294000FFF724F80CA90F2081E831004FF4A050C4
:102950000F90109005210CA8FEF740FF13B030BD7A
:1029600040380240007000401048016841F4700196
:1029700001600F48016841F0010101600C4A00212B
:102980000832116002680B4B1A400260031D0A4AAC
:102990001A60026822F48022026005480C3001604F
:1029A00002495806803908607047000088ED00E051
:1029B00000380240FFFFF6FE103000240148FFF708
:1029C000CCBB0000D00000200148FFF7C6BB0000D0
:1029D0000C010020F0B50268234B244D244E254FF6
:1029E000254C4FF0804C984209D0604507D0A84252
:1029F00005D0B04203D0B84201D0A04204D122F0A9
:102A0000700E4A6842EA0E0298421BD0604519D007
:102A1000A84217D0B04215D0B84213D0A04211D06E
:102A2000164DA8420ED0164DA8420BD0154DA84207
:102A300008D0154DA84205D0144DA84202D0144D1F
:102A4000A84203D122F44075CA682A4302608A680A
:102A5000C2620A688262984201D0A04201D109692B
:102A6000016301214161F0BD00000140000400400C
:102A700000080040000C00400004014000400140FC
:102A8000004401400048014000180040001C004084
:102A90000020004010B50123046A8B409C4304626F
:102AA000036A8A401343036210BD10B5846842EA8A
:102AB000032224F47F440A432243826010BD8268CB
:102AC00022F070020A4342F007018160704710B59E
:102AD000036A046A24F001040462846924F0F004A7
:102AE00044EA021423F00A020A438461026210BD20
:102AF00070B5046A24F0010404628469056A164E04
:102B0000B04214D0B0F1804F11D0144EB0420ED06C
:102B1000134EB0420BD0134EB04208D0124EB0420A
:102B200005D0124EB04202D0114EB04203D124F073
:102B30000304144303E024F0030242F001041A07E3
:102B400024F0F00444EA126225F00A0301F00A01BD
:102B500019438261016270BD000001400004004021
:102B600000080040000C004000040140004001400B
:102B70000018004010B5036A23F010030362836954
:102B8000046A23F4704343EA023224F0A00343EAC8
:102B900001118261016210BD30B5046A24F0100495
:102BA00004628469056A24F4407444EA022222F42F
:102BB00070444FF6FF7202EA03322243A02425F04C
:102BC000A00304EA011119438261016230BDFEE7EE
:102BD0000FB4084B10B504A902AA039800F0DEF860
:102BE000044602A9002000F070FC204610BC5DF8ED
:102BF00014FB0000CB34000802E008C8121F08C113
:102C0000002AFAD170477047002001E001C1121F6D
:102C1000002AFBD1704700002DE9FF5F82B0002140
:102C2000DDE90430020DDDF840B0034318D044F66E
:102C30001050A2F2FF3242431514119801281FD000
:102C4000A5EB0B00401C5FEA000A4FF000064E4F58
:102C5000DFF83891B046504615D5CAF1000413E0AC
:102C6000119801244AA3012801D16FEA0B010298AF
:102C7000119AC0E90031C0E9024206B0BDE8F09FF8
:102C8000CBF10000DFE704460021404A491842EB3F
:102C90000450CDE9001012E0E00707D032463B4671
:102CA00040464946FDF7E1FA8046894632463B46B2
:102CB00010461946FDF7D9FA06460F466410002C57
:102CC000EAD1DDE90401DDE90023BAF1000F06DAFB
:102CD000FDF7CBFA42464B46FDF7C7FA05E0FDF794
:102CE00036FB42464B46FDF732FB04460E460022B9
:102CF000284BFDF75FFD03D84FF0FF30014607E09A
:102D00000022254B20463146FDF795FCFDF73AFDA4
:102D1000102409E0002C0ADB0A220023FDF750FAF8
:102D2000039B30321A55641E50EA0102F2D1641C32
:102D3000039AC4F111031444119A012A03D0012209
:102D400008430DD10AE0084304D000204FF0110BD6
:102D5000119072E7A3EB0B056D1E0DE05B4504DDE2
:102D60004FF0000205F1010504E003DA4FF0000224
:102D7000A5F10105002AECD002981199C0E90231B1
:102D8000C0E9004579E70000000014400000F03F72
:102D9000300000000000F0430000E03F2DE9FF4F4D
:102DA00095B09B468946064600250FE2252877D137
:102DB00000242746F84A0121059400E0044316F850
:102DC000013F203B01FA03F01042F7D130782A2866
:102DD00011D06FF02F033078A0F13002092A16D8F5
:102DE000059A44F0020402EB820203EB4202104413
:102DF000761C0590EFE759F8042B0592002A03DAB8
:102E0000504244F40054059044F00204761C30789B
:102E10002E2816D116F8010F44F004042A280DD0EC
:102E20006FF02F023078A0F13003092B09D807EB9F
:102E3000870302EB4303C718761CF3E759F8047BBA
:102E4000761C30786C280FD006DC4C2817D0682808
:102E50000DD06A2814D104E0742810D07A280FD13C
:102E60000DE044F400140AE044F4801401E044F45A
:102E700040147278824202D104F58014761C761CCC
:102E8000307866280BD013DC582877D009DC00286E
:102E900075D04528F6D04628F4D047281AD19DE1B0
:102EA00018E0632835D0642879D0652812D195E1DF
:102EB000702873D008DC6728F1D069286FD06E289D
:102EC0000DD06F2806D1B5E073282CD0752875D0A9
:102ED000782874D05A46179990476D1C75E1C4F351
:102EE0000250022809D003280DD0D9F80010042878
:102EF0000DD00D6009F1040967E1D9F80010EA1757
:102F0000C1E90052F6E7D9F800100D80F2E70D7024
:102F1000F0E719F8041B8DF8001000208DF801006F
:102F2000EA46012003E059F804AB4FF0FF30610797
:102F30004FF0000102D40DE008F101018846B942CA
:102F40000FDA8045F8DB1AF808100029F4D108E000
:102F500008F1010188468142FADB1AF808100029BD
:102F6000F6D105985B46A0EB080721463846179A2C
:102F700000F094FA284400EB080507E04DE029E151
:102F80000DE01AF8010B5A4617999047B8F101085D
:102F9000F7D25B4621463846179A13E142E00A22EF
:102FA0000092C4F302524FF0000A022A08D059F8E6
:102FB00004CB032A4FEAEC710AD00DE029E02AE0A5
:102FC00009F1070121F00702F2E802C1914609E088
:102FD0000FFA8CFC4FEAEC71042A03D14FFA8CFCF7
:102FE0004FEAEC71002907DA0A460021DCF1000CF7
:102FF00061EB02012D2202E0220504D52B228DF87F
:103000000420012203E0E20701D02022F7E79046E6
:1030100059E00A2102E010220DE010214FF0000AD1
:1030200000910BE010224FF0000A44F0040408273E
:10303000009203E008224FF0000A0092C4F302520B
:10304000022A05D059F804CB0021032A08D009E050
:1030500009F1070121F00702F2E802C1914605E0FB
:103060001FFA8CFC042A01D10CF0FF0C4FF0000871
:10307000220728D5702806D0009B83F0100353EA5E
:103080000A0305D00EE040228DF80420012208E05A
:103090005CEA010206D030228DF804208DF805008C
:1030A00002229046009B83F0080353EA0A030AD1E8
:1030B0005CEA010201D1620705D530228DF80420B7
:1030C0004FF001087F1E582804D034A003900EA8AA
:1030D00002900DE036A0F9E753466046009AFDF7EE
:1030E0006FF884460398825C0298401E029002703A
:1030F0005CEA0100F0D1029806A9081A00F1200A42
:10310000600702D524F4803400E00127574502DD32
:10311000A7EB0A0000E0002000EB0A0100900598F0
:103120004144401A0590E00306D45B462146179AB5
:10313000059800F0B3F90544002706E001A85A46B7
:10314000C05D179990476D1C7F1C4745F6DBE00377
:103150000CD55B462146179A059800F09FF9054467
:1031600004E030205A46179990476D1C0099481E7C
:1031700000900029F5DC08E0029802995A46007890
:10318000491C0291179990476D1CBAF10001AAF1F0
:10319000010AF1DC65E10000092801003031323319
:1031A0003435363738396162636465660000000083
:1031B000303132333435363738394142434445466D
:1031C0000000000000F058F90544761C3078002813
:1031D0007FF4ECAD19B02846BDE8F08F620700D44B
:1031E000062709F1070222F0070CFCE80223E1465A
:1031F00003F000485FEA080C02D00FF2702C0DE0DB
:103200005FEA045C02D50FF2682C07E05FEAC47C39
:1032100002D00FF2602C01E0AFF2700C4FF0FF38DB
:1032200023F00043CDF850C065280CD006DC4528BB
:1032300009D046281DD047283DD13DE0662818D04A
:1032400067287ED138E00021112F01DB112000E03A
:10325000781CCDE9000106A90EA8FFF7DDFCDDE929
:103260000F010E9A03910021009207F1010A0491C7
:103270004DE04FF000400097CDE9011006A90EA8DF
:10328000FFF7CAFCDDE90F0203920E9B11990022A1
:10329000DDF80CA00093049211B9791C00EB010A2F
:1032A000B7EB0A0004D4C0F1FF3007F1010A049023
:1032B000AAEB0700019044E0012F00DA012700216A
:1032C000112F01DD112000E03846CDE9000106A9EB
:1032D0000EA8FFF7A1FCDDE90F010E9A0391002172
:1032E00004910092BA4621070CD40399514500DAA3
:1032F0008A46BAF1010F05DD009AAAF10101515C7D
:10330000302908D0B84202DA10F1040F06DA0121A0
:10331000CDE9011015E0AAF10101E9E7002805DC7B
:10332000049901440491AAEB000102E0411C5145BB
:1033300000DD8A460499401A401C01904FF000407D
:103340000290200704D40198504501DBCDF8048099
:1033500000208DF84F0002980DF14F07B0F1004F9B
:1033600025D02B200E9002984FF0020800280CDA8E
:10337000404202902D200E9007E00A210298FDF7AE
:1033800091F83031029007F8011DB8F10001A8F161
:103390000108F2DC02980028EFD1791E0E9808701F
:1033A000307800F0200040F0450007F8020D12A828
:1033B000C01B00F107081498007800B1012000EB51
:1033C0000A01019801EBE07105984144401A401E42
:1033D0000590E00306D45B462146179A059800F055
:1033E0005DF805441498007818B15A46179990472B
:1033F0006D1CE00324D55B462146179A059800F022
:103400004DF805441CE00498002807DBDDE90301C2
:10341000884203DD0098405C179901E0179930203D
:103420005A469047049805F10105401C0490019804
:10343000401E019004D12E205A46179990476D1CCA
:10344000BAF10001AAF1010ADDDC05E017F8010B71
:103450005A46179990476D1CB8F10001A8F1010870
:10346000F4DC5B462146179A0598ABE62D00000078
:103470002B000000200000002DE9F041044600254B
:103480001E461746880404D405E039462020B0477C
:103490006D1C641EF9D52846BDE8F0812DE9F04188
:1034A000044600251E469046C80301D5302700E09B
:1034B0002027880404D505E041463846B0476D1CF6
:1034C000641EF9D52846BDE8F0810A68531C0B60DC
:1034D00010707047044900220B685A6209684A6AF2
:1034E0008242FCD3704700000C01002010B50E4C46
:1034F000002208212046FDF7C9FE0320FFF7EAFF5E
:10350000012208212046FDF7C1FE0C20FFF7E2FF53
:10351000002208212046FDF7B9FE04480068C16872
:1035200041F00201C16010BD00000240D000002047
:1035300070B52A2212491348FCF773FE104C608DB7
:10354000104D6885E06AE862206B2863092204F167
:10355000340105F13400FCF764FE94F83D0085F871
:103560003D0094F83E0085F83E00206C2864606CB5
:103570006864A06CA864E06CE864206D286570BD88
:103580007C000020A80100202DED048B82B0FEF706
:1035900095F8FFF7A7F9FFF7F1F841480024016813
:1035A00041F4800101600068224600F4800001902F
:1035B00021463820FEF7E0F83820FEF7D1F83A48E7
:1035C000384901603949C0E901144FF48041C0E92C
:1035D000034144618461C4610462FDF763FEFFF747
:1035E000A5F8FFF743F9FFF707F92F489030FEF7EA
:1035F00005FC2D4800215430FEF789FD2A480122A0
:1036000069464838FDF762FBFFF77AF8FEF7BEFF20
:103610000820FEF79FFF9FED268B9FED279B284CF0
:103620004FF4FA75FFF762FFFEF7A0FF012108468D
:10363000FFF700F823A0FEF7E1FF01210220FEF7CB
:10364000F9FFBDF8000000EE100A23A0B8EE400A12
:10365000FEF7BFFFBDF80000FCF7E8FE53EC182BA7
:10366000FCF703FE53EC192BFCF771FEFCF7FEFE92
:10367000206101210320FEF7DDFF94ED040A1BA069
:10368000FEF7A7FF01210420FEF7D4FF94ED050A01
:103690001AA0FEF79EFF2846FDF70EFDC2E70000C8
:1036A00030380240005400407C000020A086010019
:1036B0006666666666660A400000000000FEAF406F
:1036C000000000204869204E677579656E205675A8
:1036D000204E677579656E004144432076616C75B4
:1036E00065203D20252E306600000000566F6C746A
:1036F000203D20252E326620560000004469737458
:10370000616E6365203D20252E3266206D6D0000C0
:10371000000102030405060708090A0B0C0D0E0F31
:1037200010111213404142434445464748494A4B11
:103730004C4D4E4F505152531415161718191A1B51
:103740001C1D1E1F20212223242526275455565791
:1037500058595A5B5C5D5E5F606162636465666771
:103760000006101600061016000000000000000001
:103770000102030406070809000000000102030417
:10378000A03700080000002034000000F82B0008DB
:10379000D437000834000020CC050000082C0008B5
:1037A0000000000000000000000000000000000019
:1037B00000000000000000004EF0010000000000CA
:1037C00000000000010000001000000000000000E8
:0437D0000024F400DD
:040000050800018965
:00000001FF
